{
    "contractName": "FlightSuretyApp",
    "abi": [
        {
            "constant": false,
            "inputs": [],
            "name": "registerOracle",
            "outputs": [],
            "payable": true,
            "stateMutability": "payable",
            "type": "function"
        },
        {
            "constant": false,
            "inputs": [
                {
                    "name": "airline",
                    "type": "address"
                },
                {
                    "name": "flight",
                    "type": "string"
                },
                {
                    "name": "timestamp",
                    "type": "uint256"
                }
            ],
            "name": "registerFlight",
            "outputs": [],
            "payable": false,
            "stateMutability": "nonpayable",
            "type": "function"
        },
        {
            "constant": false,
            "inputs": [],
            "name": "withdraw",
            "outputs": [],
            "payable": true,
            "stateMutability": "payable",
            "type": "function"
        },
        {
            "constant": true,
            "inputs": [],
            "name": "getMyIndexes",
            "outputs": [
                {
                    "name": "",
                    "type": "uint8[3]"
                }
            ],
            "payable": false,
            "stateMutability": "view",
            "type": "function"
        },
        {
            "constant": true,
            "inputs": [],
            "name": "REGISTRATION_FEE",
            "outputs": [
                {
                    "name": "",
                    "type": "uint256"
                }
            ],
            "payable": false,
            "stateMutability": "view",
            "type": "function"
        },
        {
            "constant": true,
            "inputs": [],
            "name": "AIRLINE_FUND_FEE",
            "outputs": [
                {
                    "name": "",
                    "type": "uint256"
                }
            ],
            "payable": false,
            "stateMutability": "view",
            "type": "function"
        },
        {
            "constant": false,
            "inputs": [],
            "name": "submitAirlineFunds",
            "outputs": [],
            "payable": true,
            "stateMutability": "payable",
            "type": "function"
        },
        {
            "constant": false,
            "inputs": [
                {
                    "name": "airline",
                    "type": "address"
                },
                {
                    "name": "flight",
                    "type": "string"
                },
                {
                    "name": "timestamp",
                    "type": "uint256"
                }
            ],
            "name": "buy",
            "outputs": [],
            "payable": true,
            "stateMutability": "payable",
            "type": "function"
        },
        {
            "constant": false,
            "inputs": [
                {
                    "name": "airline",
                    "type": "address"
                }
            ],
            "name": "registerAirline",
            "outputs": [
                {
                    "name": "success",
                    "type": "bool"
                },
                {
                    "name": "votes",
                    "type": "uint256"
                }
            ],
            "payable": false,
            "stateMutability": "nonpayable",
            "type": "function"
        },
        {
            "constant": false,
            "inputs": [
                {
                    "name": "index",
                    "type": "uint8"
                },
                {
                    "name": "airline",
                    "type": "address"
                },
                {
                    "name": "flight",
                    "type": "string"
                },
                {
                    "name": "timestamp",
                    "type": "uint256"
                },
                {
                    "name": "statusCode",
                    "type": "uint8"
                }
            ],
            "name": "submitOracleResponse",
            "outputs": [],
            "payable": false,
            "stateMutability": "nonpayable",
            "type": "function"
        },
        {
            "constant": true,
            "inputs": [],
            "name": "MAX_INSUREE",
            "outputs": [
                {
                    "name": "",
                    "type": "uint256"
                }
            ],
            "payable": false,
            "stateMutability": "view",
            "type": "function"
        },
        {
            "constant": false,
            "inputs": [
                {
                    "name": "airline",
                    "type": "address"
                },
                {
                    "name": "flight",
                    "type": "string"
                },
                {
                    "name": "timestamp",
                    "type": "uint256"
                }
            ],
            "name": "fetchFlightStatus",
            "outputs": [],
            "payable": false,
            "stateMutability": "nonpayable",
            "type": "function"
        },
        {
            "inputs": [
                {
                    "name": "dataContract",
                    "type": "address"
                }
            ],
            "payable": false,
            "stateMutability": "nonpayable",
            "type": "constructor"
        },
        {
            "anonymous": false,
            "inputs": [
                {
                    "indexed": false,
                    "name": "airline",
                    "type": "address"
                },
                {
                    "indexed": false,
                    "name": "flight",
                    "type": "string"
                },
                {
                    "indexed": false,
                    "name": "timestamp",
                    "type": "uint256"
                },
                {
                    "indexed": false,
                    "name": "status",
                    "type": "uint8"
                }
            ],
            "name": "FlightStatusInfo",
            "type": "event"
        },
        {
            "anonymous": false,
            "inputs": [
                {
                    "indexed": false,
                    "name": "airline",
                    "type": "address"
                },
                {
                    "indexed": false,
                    "name": "flight",
                    "type": "string"
                },
                {
                    "indexed": false,
                    "name": "timestamp",
                    "type": "uint256"
                },
                {
                    "indexed": false,
                    "name": "status",
                    "type": "uint8"
                }
            ],
            "name": "OracleReport",
            "type": "event"
        },
        {
            "anonymous": false,
            "inputs": [
                {
                    "indexed": false,
                    "name": "index",
                    "type": "uint8"
                },
                {
                    "indexed": false,
                    "name": "airline",
                    "type": "address"
                },
                {
                    "indexed": false,
                    "name": "flight",
                    "type": "string"
                },
                {
                    "indexed": false,
                    "name": "timestamp",
                    "type": "uint256"
                }
            ],
            "name": "OracleRequest",
            "type": "event"
        }
    ],
    "bytecode": "60806040526001805460a060020a60ff021916905534801561002057600080fd5b50604051602080612046833981016040525160008054600160a060020a0319908116331790915560018054600160a060020a0390931692909116919091179055611fd78061006f6000396000f3006080604052600436106100a05763ffffffff60e060020a600035041663339d259081146100a55780633cc0be9c146100af5780633ccfd60b146100df5780635f1cc0e6146100e757806364b4f751146101345780639f1afb9d1461015b578063a8bdf4ea14610170578063b1c46d2214610178578063bdfd98771461019b578063c10f2700146101d7578063c1e7624014610134578063f83f11c014610219575b600080fd5b6100ad610249565b005b3480156100bb57600080fd5b506100ad60048035600160a060020a03169060248035908101910135604435610307565b6100ad6104b9565b3480156100f357600080fd5b506100fc610759565b6040518082606080838360005b83811015610121578181015183820152602001610109565b5050505090500191505060405180910390f35b34801561014057600080fd5b5061014961082b565b60408051918252519081900360200190f35b34801561016757600080fd5b50610149610837565b6100ad610843565b6100ad60048035600160a060020a03169060248035908101910135604435610b13565b3480156101a757600080fd5b506101bc600160a060020a0360043516610dcd565b60408051921515835260208301919091528051918290030190f35b3480156101e357600080fd5b506100ad60ff60048035821691600160a060020a03602480359190911692604435918201929101359060643590608435166113b3565b34801561022557600080fd5b506100ad60048035600160a060020a031690602480359081019101356044356117d3565b610251611ebb565b670de0b6b3a76400003410156102b1576040805160e560020a62461bcd02815260206004820152601c60248201527f526567697374726174696f6e2066656520697320726571756972656400000000604482015290519081900360640190fd5b6102ba336119c0565b6040805180820182526001808252602080830185815233600090815260029092529390208251815460ff191690151517815592519394509092610301918301906003611eda565b50505050565b600154604080517fcd905dff0000000000000000000000000000000000000000000000000000000081529051600092600160a060020a03169163cd905dff91600480830192602092919082900301818787803b15801561036657600080fd5b505af115801561037a573d6000803e3d6000fd5b505050506040513d602081101561039057600080fd5b505115156103e7576040805160e560020a62461bcd0281526020600482015260256024820152600080516020611f8c833981519152604482015260da60020a641a5bdb985b02606482015290519081900360840190fd5b6104238585858080601f01602080910402602001604051908101604052809392919081815260200183838082843750899450611a669350505050565b600154604080517f8836e7a8000000000000000000000000000000000000000000000000000000008152600160a060020a03898116600483015260248201879052604482018590529151939450911691638836e7a89160648082019260009290919082900301818387803b15801561049a57600080fd5b505af11580156104ae573d6000803e3d6000fd5b505050505050505050565b600154604080517fcd905dff0000000000000000000000000000000000000000000000000000000081529051600092600160a060020a03169163cd905dff91600480830192602092919082900301818787803b15801561051857600080fd5b505af115801561052c573d6000803e3d6000fd5b505050506040513d602081101561054257600080fd5b50511515610599576040805160e560020a62461bcd0281526020600482015260256024820152600080516020611f8c833981519152604482015260da60020a641a5bdb985b02606482015290519081900360840190fd5b600154604080517ff1559d130000000000000000000000000000000000000000000000000000000081523360048201529051600160a060020a039092169163f1559d13916024808201926020929091908290030181600087803b1580156105ff57600080fd5b505af1158015610613573d6000803e3d6000fd5b505050506040513d602081101561062957600080fd5b50519050600081116106ab576040805160e560020a62461bcd02815260206004820152602160248201527f796f7520646f6e277420686176652063726564697420746f207769746864726160448201527f7700000000000000000000000000000000000000000000000000000000000000606482015290519081900360840190fd5b600154604080517f0c11dedd0000000000000000000000000000000000000000000000000000000081523360048201529051600160a060020a0390921691630c11dedd9160248082019260009290919082900301818387803b15801561071057600080fd5b505af1158015610724573d6000803e3d6000fd5b505060405133925083156108fc02915083906000818181858888f19350505050158015610755573d6000803e3d6000fd5b5050565b610761611ebb565b3360009081526002602052604090205460ff1615156107ca576040805160e560020a62461bcd02815260206004820152601b60248201527f4e6f74207265676973746572656420617320616e206f7261636c650000000000604482015290519081900360640190fd5b3360009081526002602052604080822081516060810192839052926001909101916003918390855b825461010083900a900460ff168152602060019283018181049485019490930390920291018084116107f2579050505050505090505b90565b670de0b6b3a764000081565b678ac7230489e8000081565b600154604080517fa78d97990000000000000000000000000000000000000000000000000000000081523360048201529051600160a060020a039092169163a78d9799916024808201926020929091908290030181600087803b1580156108a957600080fd5b505af11580156108bd573d6000803e3d6000fd5b505050506040513d60208110156108d357600080fd5b5051151561092b576040805160e560020a62461bcd02815260206004820181905260248201527f43616c6c6572206973206e6f742072656769737465726564206169726c696e65604482015290519081900360640190fd5b600160009054906101000a9004600160a060020a0316600160a060020a031663cd905dff6040518163ffffffff1660e060020a028152600401602060405180830381600087803b15801561097e57600080fd5b505af1158015610992573d6000803e3d6000fd5b505050506040513d60208110156109a857600080fd5b505115156109ff576040805160e560020a62461bcd0281526020600482015260256024820152600080516020611f8c833981519152604482015260da60020a641a5bdb985b02606482015290519081900360840190fd5b678ac7230489e80000341015610a5f576040805160e560020a62461bcd02815260206004820152600f60248201527f6e6f7420656e6f7567682066756e640000000000000000000000000000000000604482015290519081900360640190fd5b60008054604051600160a060020a03909116913480156108fc02929091818181858888f19350505050158015610a99573d6000803e3d6000fd5b50600154604080517fca8b26a00000000000000000000000000000000000000000000000000000000081523360048201529051600160a060020a039092169163ca8b26a09160248082019260009290919082900301818387803b158015610aff57600080fd5b505af1158015610301573d6000803e3d6000fd5b600154604080517fcd905dff0000000000000000000000000000000000000000000000000000000081529051600092600160a060020a03169163cd905dff91600480830192602092919082900301818787803b158015610b7257600080fd5b505af1158015610b86573d6000803e3d6000fd5b505050506040513d6020811015610b9c57600080fd5b50511515610bf3576040805160e560020a62461bcd0281526020600482015260256024820152600080516020611f8c833981519152604482015260da60020a641a5bdb985b02606482015290519081900360840190fd5b670de0b6b3a7640000341115610c79576040805160e560020a62461bcd02815260206004820152602860248201527f796f752063616e206f6e6c792062757920696e737572616e636520757020746f60448201527f2031206574686572000000000000000000000000000000000000000000000000606482015290519081900360840190fd5b610cb58585858080601f01602080910402602001604051908101604052809392919081815260200183838082843750899450611a669350505050565b600154604080517f32bd2609000000000000000000000000000000000000000000000000000000008152600481018490523360248201529051929350600160a060020a03909116916332bd2609916044808201926020929091908290030181600087803b158015610d2557600080fd5b505af1158015610d39573d6000803e3d6000fd5b505050506040513d6020811015610d4f57600080fd5b505115610d5b57600080fd5b600154604080517f78133ffd000000000000000000000000000000000000000000000000000000008152600481018490523360248201523460448201529051600160a060020a03909216916378133ffd9160648082019260009290919082900301818387803b15801561049a57600080fd5b600154604080517fa78d97990000000000000000000000000000000000000000000000000000000081523360048201529051600092839283928392600160a060020a03169163a78d979991602480830192602092919082900301818787803b158015610e3857600080fd5b505af1158015610e4c573d6000803e3d6000fd5b505050506040513d6020811015610e6257600080fd5b50511515610eba576040805160e560020a62461bcd02815260206004820181905260248201527f43616c6c6572206973206e6f742072656769737465726564206169726c696e65604482015290519081900360640190fd5b600154604080517ff3ba4e1b0000000000000000000000000000000000000000000000000000000081523360048201529051600160a060020a039092169163f3ba4e1b916024808201926020929091908290030181600087803b158015610f2057600080fd5b505af1158015610f34573d6000803e3d6000fd5b505050506040513d6020811015610f4a57600080fd5b50511515610fa2576040805160e560020a62461bcd02815260206004820152601c60248201527f43616c6c6572206973206e6f742066756e646564206169726c696e6500000000604482015290519081900360640190fd5b600154604080517f9418673a000000000000000000000000000000000000000000000000000000008152600160a060020a038089166004830152915188939290921691639418673a916024808201926020929091908290030181600087803b15801561100d57600080fd5b505af1158015611021573d6000803e3d6000fd5b505050506040513d602081101561103757600080fd5b50511561108e576040805160e560020a62461bcd02815260206004820152601d60248201527f416c726561647920766f74656420746f20746865206169726c696e6521000000604482015290519081900360640190fd5b600160009054906101000a9004600160a060020a0316600160a060020a031663cd905dff6040518163ffffffff1660e060020a028152600401602060405180830381600087803b1580156110e157600080fd5b505af11580156110f5573d6000803e3d6000fd5b505050506040513d602081101561110b57600080fd5b50511515611162576040805160e560020a62461bcd0281526020600482015260256024820152600080516020611f8c833981519152604482015260da60020a641a5bdb985b02606482015290519081900360840190fd5b600160009054906101000a9004600160a060020a0316600160a060020a031663f77890ea6040518163ffffffff1660e060020a028152600401602060405180830381600087803b1580156111b557600080fd5b505af11580156111c9573d6000803e3d6000fd5b505050506040513d60208110156111df57600080fd5b50519250600483101561127857600154604080517fbdfd9877000000000000000000000000000000000000000000000000000000008152600160a060020a0389811660048301529151919092169163bdfd987791602480830192600092919082900301818387803b15801561125357600080fd5b505af1158015611267573d6000803e3d6000fd5b50600197508796506113ab92505050565b600154604080517fd8ab5b89000000000000000000000000000000000000000000000000000000008152600160a060020a0389811660048301529151919092169163d8ab5b8991602480830192600092919082900301818387803b1580156112df57600080fd5b505af11580156112f3573d6000803e3d6000fd5b5050600154604080517f9ab24eb0000000000000000000000000000000000000000000000000000000008152600160a060020a038b811660048301529151919092169350639ab24eb0925060248083019260209291908290030181600087803b15801561135f57600080fd5b505af1158015611373573d6000803e3d6000fd5b505050506040513d602081101561138957600080fd5b505191506002830482106113a357600182945094506113ab565b600082945094505b505050915091565b3360009081526002602052604081206001015460ff888116911614806113f557503360009081526002602052604090206001015460ff88811661010090920416145b8061141d57503360009081526002602052604090206001015460ff8881166201000090920416145b1515611499576040805160e560020a62461bcd02815260206004820152602360248201527f496e64657820646f6573206e6f74206d61746368206f7261636c65207265717560448201527f6573740000000000000000000000000000000000000000000000000000000000606482015290519081900360840190fd5b8686868686604051602001808660ff1660ff167f010000000000000000000000000000000000000000000000000000000000000002815260010185600160a060020a0316600160a060020a03166c010000000000000000000000000281526014018484808284378201915050828152602001955050505050506040516020818303038152906040526040518082805190602001908083835b602083106115505780518252601f199092019160209182019101611531565b51815160209384036101000a6000190180199092169116179052604080519290940182900390912060008181526003909252929020549194505074010000000000000000000000000000000000000000900460ff16151591506116259050576040805160e560020a62461bcd02815260206004820152602f60248201527f466c69676874206f722074696d657374616d7020646f206e6f74206d6174636860448201527f206f7261636c6520726571756573740000000000000000000000000000000000606482015290519081900360840190fd5b600081815260036020908152604080832060ff8616808552600191820184528285208054928301815585529383902001805473ffffffffffffffffffffffffffffffffffffffff1916331790558051600160a060020a038a168152908101869052606081019290925260809082018181529082018690527f43c853095c2752648493c88b4baac4d580d2594ffb00c6f1d4242d844514f783918891889188918891889160a0820186868082843760405192018290039850909650505050505050a1600081815260036020818152604080842060ff8716855260010190915290912054106117ca577fe23f5229de535c091e3b7bec2665f5d698192d3b31393066e8987b7a05076b6c86868686866040518086600160a060020a0316600160a060020a03168152602001806020018481526020018360ff1660ff168152602001828103825286868281815260200192508082843760405192018290039850909650505050505050a16117ca8686868080601f0160208091040260200160405190810160405280939291908181526020018383808284378201915050505050508585611b59565b50505050505050565b6000806117df33611d82565b91508186868686604051602001808660ff1660ff167f010000000000000000000000000000000000000000000000000000000000000002815260010185600160a060020a0316600160a060020a03166c010000000000000000000000000281526014018484808284378201915050828152602001955050505050506040516020818303038152906040526040518082805190602001908083835b602083106118985780518252601f199092019160209182019101611879565b51815160209384036101000a6000190180199092169116179052604080519290940182900382208285018552338352600183830190815260008281526003845286902093518454915173ffffffffffffffffffffffffffffffffffffffff19909216600160a060020a039182161774ff00000000000000000000000000000000000000001916740100000000000000000000000000000000000000009215159290920291909117909355845160ff8a168152928d16918301919091526060820189905260809382018481529382018a905295507f3ed01f2c3fc24c6b329d931e35b03e390d23497d22b3f90e15b600343e93df1194508693508a928a92508991899160a0820185858082843760405192018290039850909650505050505050a1505050505050565b6119c8611ebb565b6119d0611ebb565b6119d983611d82565b60ff1680825260208201525b8051602082015160ff90811691161415611a0f57611a0283611d82565b60ff1660208201526119e5565b602081015160ff1660408201525b8051604082015160ff90811691161480611a4557506020810151604082015160ff9081169116145b15611a6057611a5383611d82565b60ff166040820152611a1d565b92915050565b60008383836040516020018084600160a060020a0316600160a060020a03166c0100000000000000000000000002815260140183805190602001908083835b60208310611ac45780518252601f199092019160209182019101611aa5565b51815160209384036101000a60001901801990921691161790529201938452506040805180850381529382019081905283519395509350839290850191508083835b60208310611b255780518252601f199092019160209182019101611b06565b5181516020939093036101000a60001901801990911692169190911790526040519201829003909120979650505050505050565b6000611b66858585611a66565b600154604080517f58ac36a3000000000000000000000000000000000000000000000000000000008152600481018490529051929350600160a060020a03909116916358ac36a3916024808201926020929091908290030181600087803b158015611bd057600080fd5b505af1158015611be4573d6000803e3d6000fd5b505050506040513d6020811015611bfa57600080fd5b50511515611c52576040805160e560020a62461bcd02815260206004820152601860248201527f466c69676874206973206e6f7420726567697374657265640000000000000000604482015290519081900360640190fd5b600154604080517ffb933ebd000000000000000000000000000000000000000000000000000000008152600481018490529051600160a060020a039092169163fb933ebd916024808201926020929091908290030181600087803b158015611cb957600080fd5b505af1158015611ccd573d6000803e3d6000fd5b505050506040513d6020811015611ce357600080fd5b5051158015611d10575060ff821660141480611d02575060ff82166032145b80611d10575060ff82166028145b15611d7b57600154604080517fcc2f6eba000000000000000000000000000000000000000000000000000000008152600481018490529051600160a060020a039092169163cc2f6eba9160248082019260009290919082900301818387803b15801561049a57600080fd5b5050505050565b6001805474ff000000000000000000000000000000000000000019811660ff740100000000000000000000000000000000000000009283900481168085019091169092021790915560408051439290920340602080840191909152600160a060020a0384166c010000000000000000000000000283830152815180840360340181526054909301918290528251600093600a938593859382918401908083835b60208310611e415780518252601f199092019160209182019101611e22565b5181516020939093036101000a6000190180199091169216919091179052604051920182900390912092505050811515611e7757fe5b06905060fa600160149054906101000a900460ff1660ff161115611eb4576001805474ff0000000000000000000000000000000000000000191690555b9392505050565b6060604051908101604052806003906020820280388339509192915050565b600183019183908215611f5d5791602002820160005b83821115611f2e57835183826101000a81548160ff021916908360ff1602179055509260200192600101602081600001049283019260010302611ef0565b8015611f5b5782816101000a81549060ff0219169055600101602081600001049283019260010302611f2e565b505b50611f69929150611f6d565b5090565b61082891905b80821115611f6957805460ff19168155600101611f735600436f6e74726163742069732063757272656e746c79206e6f74206f7065726174a165627a7a723058200eb0e65cf7788c1d3946aef2ce3acae915659d456d59191b347bc5c753b926950029",
    "sourcePath": "/Users/roychiu/Desktop/BlockChainLearning/FlightSurety/contracts/FlightSuretyApp.sol",
    "compiler": {
        "name": "solc",
        "version": "0.4.25+commit.59dbf8f1"
    },
    "functionHashes": {
        "AIRLINE_FUND_FEE()": "9f1afb9d",
        "MAX_INSUREE()": "c1e76240",
        "REGISTRATION_FEE()": "64b4f751",
        "buy(address,string,uint256)": "b1c46d22",
        "fetchFlightStatus(address,string,uint256)": "f83f11c0",
        "getMyIndexes()": "5f1cc0e6",
        "registerAirline(address)": "bdfd9877",
        "registerFlight(address,string,uint256)": "3cc0be9c",
        "registerOracle()": "339d2590",
        "submitAirlineFunds()": "a8bdf4ea",
        "submitOracleResponse(uint8,address,string,uint256,uint8)": "c10f2700",
        "withdraw()": "3ccfd60b"
    },
    "gasEstimates": {
        "creation": {
            "codeDepositCost": "1630200",
            "executionCost": "62651",
            "totalCost": "1692851"
        },
        "external": {
            "AIRLINE_FUND_FEE()": "357",
            "MAX_INSUREE()": "467",
            "REGISTRATION_FEE()": "335",
            "buy(address,string,uint256)": "infinite",
            "fetchFlightStatus(address,string,uint256)": "infinite",
            "getMyIndexes()": "infinite",
            "registerAirline(address)": "infinite",
            "registerFlight(address,string,uint256)": "infinite",
            "registerOracle()": "infinite",
            "submitAirlineFunds()": "infinite",
            "submitOracleResponse(uint8,address,string,uint256,uint8)": "infinite",
            "withdraw()": "infinite"
        },
        "internal": {
            "generateIndexes(address)": "infinite",
            "getFlightKey(address,string memory,uint256)": "infinite",
            "getRandomIndex(address)": "infinite",
            "processFlightStatus(address,string memory,uint256,uint8)": "infinite"
        }
    }
}